{
  "contractName": "Contract",
  "abi": [
    {
      "inputs": [],
      "stateMutability": "nonpayable",
      "type": "constructor"
    },
    {
      "inputs": [
        {
          "internalType": "uint256",
          "name": "",
          "type": "uint256"
        }
      ],
      "name": "Dr_ids",
      "outputs": [
        {
          "internalType": "address",
          "name": "",
          "type": "address"
        }
      ],
      "stateMutability": "view",
      "type": "function",
      "constant": true
    },
    {
      "inputs": [
        {
          "internalType": "uint256",
          "name": "",
          "type": "uint256"
        }
      ],
      "name": "Patient_ids",
      "outputs": [
        {
          "internalType": "address",
          "name": "",
          "type": "address"
        }
      ],
      "stateMutability": "view",
      "type": "function",
      "constant": true
    },
    {
      "inputs": [
        {
          "internalType": "uint256",
          "name": "",
          "type": "uint256"
        }
      ],
      "name": "RecordHashes",
      "outputs": [
        {
          "internalType": "string",
          "name": "",
          "type": "string"
        }
      ],
      "stateMutability": "view",
      "type": "function",
      "constant": true
    },
    {
      "inputs": [],
      "name": "getAdmin",
      "outputs": [
        {
          "internalType": "address",
          "name": "",
          "type": "address"
        }
      ],
      "stateMutability": "view",
      "type": "function",
      "constant": true
    },
    {
      "inputs": [
        {
          "internalType": "address",
          "name": "_newdr",
          "type": "address"
        }
      ],
      "name": "addDoctor",
      "outputs": [],
      "stateMutability": "nonpayable",
      "type": "function"
    },
    {
      "inputs": [
        {
          "internalType": "address",
          "name": "id",
          "type": "address"
        }
      ],
      "name": "isDr",
      "outputs": [
        {
          "internalType": "string",
          "name": "",
          "type": "string"
        }
      ],
      "stateMutability": "view",
      "type": "function",
      "constant": true
    },
    {
      "inputs": [
        {
          "internalType": "address",
          "name": "id",
          "type": "address"
        }
      ],
      "name": "isPat",
      "outputs": [
        {
          "internalType": "string",
          "name": "",
          "type": "string"
        }
      ],
      "stateMutability": "view",
      "type": "function",
      "constant": true
    },
    {
      "inputs": [
        {
          "internalType": "address",
          "name": "_newpatient",
          "type": "address"
        }
      ],
      "name": "addPatient",
      "outputs": [],
      "stateMutability": "nonpayable",
      "type": "function"
    },
    {
      "inputs": [
        {
          "internalType": "address",
          "name": "iD",
          "type": "address"
        }
      ],
      "name": "getPatInfo",
      "outputs": [
        {
          "internalType": "string",
          "name": "",
          "type": "string"
        }
      ],
      "stateMutability": "view",
      "type": "function",
      "constant": true
    },
    {
      "inputs": [
        {
          "internalType": "address",
          "name": "pat_id",
          "type": "address"
        },
        {
          "internalType": "string",
          "name": "_patInfoHash",
          "type": "string"
        }
      ],
      "name": "addPatInfo",
      "outputs": [],
      "stateMutability": "nonpayable",
      "type": "function"
    },
    {
      "inputs": [
        {
          "internalType": "string",
          "name": "_recHash",
          "type": "string"
        },
        {
          "internalType": "address",
          "name": "_pat_id",
          "type": "address"
        }
      ],
      "name": "addMedRecord",
      "outputs": [],
      "stateMutability": "nonpayable",
      "type": "function"
    },
    {
      "inputs": [
        {
          "internalType": "address",
          "name": "id",
          "type": "address"
        }
      ],
      "name": "viewMedRec",
      "outputs": [
        {
          "internalType": "string",
          "name": "",
          "type": "string"
        }
      ],
      "stateMutability": "view",
      "type": "function",
      "constant": true
    }
  ],
  "bytecode": "0x608060405234801561001057600080fd5b50600a8054336001600160a01b0319909116811790915561003e90600090610043602090811b61060d17901c565b610147565b61004d82826100c4565b1561009f5760405162461bcd60e51b815260206004820152601f60248201527f526f6c65733a206163636f756e7420616c72656164792068617320726f6c650060448201526064015b60405180910390fd5b6001600160a01b0316600090815260209190915260409020805460ff19166001179055565b60006001600160a01b0382166101275760405162461bcd60e51b815260206004820152602260248201527f526f6c65733a206163636f756e7420697320746865207a65726f206164647265604482015261737360f01b6064820152608401610096565b506001600160a01b03166000908152602091909152604090205460ff1690565b610a01806101566000396000f3fe608060405234801561001057600080fd5b50600436106100b45760003560e01c80636e9960c3116100715780636e9960c314610157578063720d5b4b14610168578063be9568731461017b578063c979783f1461018e578063cc572914146101a1578063f1a1d7d5146101b457600080fd5b806311f67285146100b95780632f4a4dcb146100ce5780633c52554b146100fe5780634780468f1461011e57806358dae14f146101315780636d263ceb14610144575b600080fd5b6100cc6100c7366004610864565b6101c7565b005b6100e16100dc3660046108b2565b610250565b6040516001600160a01b0390911681526020015b60405180910390f35b61011161010c3660046108cb565b61027a565b6040516100f591906108ed565b6100cc61012c3660046108cb565b610326565b61011161013f3660046108b2565b610381565b6100cc6101523660046108cb565b61042d565b600a546001600160a01b03166100e1565b6101116101763660046108cb565b61048d565b6101116101893660046108cb565b6104f6565b6100e161019c3660046108b2565b610503565b6101116101af3660046108cb565b610513565b6100cc6101c2366004610942565b61053a565b6001600160a01b0382166000908152600460209081526040909120825190916101f491839185019061070c565b50600780546001810182556000919091527fa66cc928b5edb82af9bd49922954155ab7b0942694bea4ce44661d9a8736c6880180546001600160a01b0319166001600160a01b03851617905561024b60028461060d565b505050565b6007818154811061026057600080fd5b6000918252602090912001546001600160a01b0316905081565b6001600160a01b03811660009081526005602052604090208054606091906102a190610990565b80601f01602080910402602001604051908101604052809291908181526020018280546102cd90610990565b801561031a5780601f106102ef5761010080835404028352916020019161031a565b820191906000526020600020905b8154815290600101906020018083116102fd57829003601f168201915b50505050509050919050565b610331600033610689565b6103735760405162461bcd60e51b815260206004820152600e60248201526d27b7363c902337b91020b236b4b760911b60448201526064015b60405180910390fd5b61037e60018261060d565b50565b6008818154811061039157600080fd5b9060005260206000200160009150905080546103ac90610990565b80601f01602080910402602001604051908101604052809291908181526020018280546103d890610990565b80156104255780601f106103fa57610100808354040283529160200191610425565b820191906000526020600020905b81548152906001019060200180831161040857829003601f168201915b505050505081565b610438600033610689565b15156001146104825760405162461bcd60e51b815260206004820152601660248201527513db9b1e4810591b5a5b8810d85b88111bc8151a185d60521b604482015260640161036a565b61037e60028261060d565b606061049a600283610689565b6104d95760405162461bcd60e51b815260206004820152601060248201526f4f6e6c7920666f7220446f63746f727360801b604482015260640161036a565b50506040805180820190915260018152603160f81b602082015290565b606061049a600183610689565b6006818154811061026057600080fd5b6001600160a01b03811660009081526004602052604090208054606091906102a190610990565b610545600133610689565b15156001146105965760405162461bcd60e51b815260206004820152601760248201527f4f6e6c7920446f63746f722043616e20446f2054686174000000000000000000604482015260640161036a565b6001600160a01b0381166000908152600560209081526040909120835190916105c391839186019061070c565b50600880546001810182556000919091528351610607917ff3f7a9fe364faab93b216da50a3214154f22a0a2b415b23a84c8169e8b636ee30190602086019061070c565b50505050565b6106178282610689565b156106645760405162461bcd60e51b815260206004820152601f60248201527f526f6c65733a206163636f756e7420616c72656164792068617320726f6c6500604482015260640161036a565b6001600160a01b0316600090815260209190915260409020805460ff19166001179055565b60006001600160a01b0382166106ec5760405162461bcd60e51b815260206004820152602260248201527f526f6c65733a206163636f756e7420697320746865207a65726f206164647265604482015261737360f01b606482015260840161036a565b506001600160a01b03166000908152602091909152604090205460ff1690565b82805461071890610990565b90600052602060002090601f01602090048101928261073a5760008555610780565b82601f1061075357805160ff1916838001178555610780565b82800160010185558215610780579182015b82811115610780578251825591602001919060010190610765565b5061078c929150610790565b5090565b5b8082111561078c5760008155600101610791565b80356001600160a01b03811681146107bc57600080fd5b919050565b634e487b7160e01b600052604160045260246000fd5b600082601f8301126107e857600080fd5b813567ffffffffffffffff80821115610803576108036107c1565b604051601f8301601f19908116603f0116810190828211818310171561082b5761082b6107c1565b8160405283815286602085880101111561084457600080fd5b836020870160208301376000602085830101528094505050505092915050565b6000806040838503121561087757600080fd5b610880836107a5565b9150602083013567ffffffffffffffff81111561089c57600080fd5b6108a8858286016107d7565b9150509250929050565b6000602082840312156108c457600080fd5b5035919050565b6000602082840312156108dd57600080fd5b6108e6826107a5565b9392505050565b600060208083528351808285015260005b8181101561091a578581018301518582016040015282016108fe565b8181111561092c576000604083870101525b50601f01601f1916929092016040019392505050565b6000806040838503121561095557600080fd5b823567ffffffffffffffff81111561096c57600080fd5b610978858286016107d7565b925050610987602084016107a5565b90509250929050565b600181811c908216806109a457607f821691505b602082108114156109c557634e487b7160e01b600052602260045260246000fd5b5091905056fea2646970667358221220d48c68e06609139f04f7a7906e3c9a4942d22a2b3a351c28e71f5c706de0744864736f6c634300080b0033",
  "immutableReferences": {},
  "source": "// SPDX-License-Identifier: MIT\r\npragma solidity >= 0.4.21;\r\n\r\nimport './Roles.sol';\r\n\r\ncontract Contract{\r\n\r\n    using Roles for Roles.Role;\r\n\r\n    Roles.Role private admin;\r\n    Roles.Role private doctor;\r\n    Roles.Role private patient;\r\n\r\n    struct Doctor{\r\n        string drHash;\r\n    }\r\n\r\n    struct Patient{\r\n        string patHash;\r\n    }\r\n\r\n    struct MedRec{\r\n        string RecordHash;\r\n    }\r\n\r\n    mapping(address => Doctor) Doctors;\r\n    mapping(address => Patient) Patients;\r\n    mapping(address => MedRec) Records;\r\n\r\n    address[] public Dr_ids;\r\n    address[] public Patient_ids;\r\n    string[] public RecordHashes;\r\n\r\n    address accountId;\r\n    address admin_id;\r\n    address get_patient_id;\r\n    address get_dr_id;\r\n\r\n    constructor() {\r\n        admin_id = msg.sender;\r\n        admin.add(admin_id);\r\n    }\r\n\r\n    //get Admin\r\n\r\n    function getAdmin() public view returns(address){\r\n        return admin_id;\r\n    }\r\n\r\n\r\n    //Add Doctor\r\n\r\n    function addDoctor(address _newdr) public{\r\n        require(admin.has(msg.sender), 'Only For Admin'); \r\n        doctor.add(_newdr);\r\n    }\r\n\r\n   // check is Doctor\r\n\r\n    function isDr(address id) public view returns(string memory){\r\n        require(doctor.has(id), \"Only for Doctors\");\r\n        return \"1\";\r\n    }\r\n\r\n    // Check is Patient\r\n\r\n    function isPat(address id) public view returns(string memory){\r\n        require(patient.has(id), \"Only for Doctors\");\r\n        return \"1\";\r\n    }\r\n\r\n    //  Add patient\r\n\r\n    function addPatient(address _newpatient) external onlyAdmin() {\r\n        patient.add(_newpatient);\r\n    }\r\n\r\n    // Get Patient Information => retrun pateint IPFS hash\r\n\r\n    function getPatInfo(address iD)public view returns(string memory){\r\n        return (Patients[iD].patHash);\r\n    }\r\n\r\n    // Add patient Information to BlockChain\r\n\r\n    function addPatInfo(address pat_id, string memory _patInfoHash) public {\r\n        Patient storage patInfo = Patients[pat_id];\r\n        patInfo.patHash = _patInfoHash;\r\n        Patient_ids.push(pat_id);\r\n\r\n        patient.add(pat_id);\r\n    }\r\n\r\n    // Add Medical record to block chain\r\n\r\n    function addMedRecord(string memory _recHash, address _pat_id) public{\r\n        require(doctor.has(msg.sender) == true, 'Only Doctor Can Do That');\r\n\r\n        MedRec storage record = Records[_pat_id];\r\n        record.RecordHash = _recHash;\r\n        RecordHashes.push(_recHash);\r\n    }\r\n\r\n    // View Medical record return IPFS hash of record\r\n    \r\n    function viewMedRec(address id)public view returns(string memory){\r\n        return (Records[id].RecordHash);\r\n    }\r\n\r\n    /*\r\n        Modifiers\r\n    */\r\n\r\n\r\n    modifier onlyAdmin(){\r\n        require(admin.has(msg.sender) == true, 'Only Admin Can Do That');\r\n        _;\r\n    }\r\n    modifier onlyDoctor(){\r\n        require(doctor.has(msg.sender) == true, 'Only Doctor Can Do That');\r\n        _;\r\n    }\r\n    modifier onlyPatient(){\r\n        require(patient.has(msg.sender) == true, 'Only Admin Can Do That');\r\n        _;\r\n    }\r\n\r\n}",
  "sourcePath": "/home/vaibhav/Desktop/MP Demo/Client/contracts/Contract.sol",
  "compiler": {
    "name": "solc",
    "version": "0.8.11+commit.d7f03943.Emscripten.clang"
  },
  "schemaVersion": "3.4.4",
  "updatedAt": "2022-03-24T12:50:39.641Z",
  "networkType": "ethereum",
  "devdoc": {
    "kind": "dev",
    "methods": {},
    "version": 1
  },
  "userdoc": {
    "kind": "user",
    "methods": {},
    "version": 1
  }
}